{
  "contractName": "Adoption",
  "abi": [
    {
      "inputs": [],
      "payable": false,
      "stateMutability": "nonpayable",
      "type": "constructor"
    },
    {
      "anonymous": false,
      "inputs": [
        {
          "indexed": false,
          "internalType": "string",
          "name": "name",
          "type": "string"
        },
        {
          "indexed": false,
          "internalType": "uint256",
          "name": "age",
          "type": "uint256"
        },
        {
          "indexed": false,
          "internalType": "string",
          "name": "breed",
          "type": "string"
        },
        {
          "indexed": false,
          "internalType": "string",
          "name": "location",
          "type": "string"
        },
        {
          "indexed": false,
          "internalType": "string",
          "name": "image",
          "type": "string"
        }
      ],
      "name": "PetAdded",
      "type": "event"
    },
    {
      "anonymous": false,
      "inputs": [
        {
          "indexed": false,
          "internalType": "address",
          "name": "adopter",
          "type": "address"
        },
        {
          "indexed": false,
          "internalType": "uint256",
          "name": "petId",
          "type": "uint256"
        }
      ],
      "name": "PetAdopted",
      "type": "event"
    },
    {
      "anonymous": false,
      "inputs": [
        {
          "indexed": false,
          "internalType": "address",
          "name": "owner",
          "type": "address"
        },
        {
          "indexed": false,
          "internalType": "uint256",
          "name": "petId",
          "type": "uint256"
        },
        {
          "indexed": false,
          "internalType": "uint256",
          "name": "price",
          "type": "uint256"
        }
      ],
      "name": "PetPutForSale",
      "type": "event"
    },
    {
      "anonymous": false,
      "inputs": [
        {
          "indexed": false,
          "internalType": "address",
          "name": "buyer",
          "type": "address"
        },
        {
          "indexed": false,
          "internalType": "uint256",
          "name": "petId",
          "type": "uint256"
        }
      ],
      "name": "PetSold",
      "type": "event"
    },
    {
      "constant": true,
      "inputs": [],
      "name": "administrator",
      "outputs": [
        {
          "internalType": "address",
          "name": "",
          "type": "address"
        }
      ],
      "payable": false,
      "stateMutability": "view",
      "type": "function"
    },
    {
      "constant": true,
      "inputs": [
        {
          "internalType": "uint256",
          "name": "",
          "type": "uint256"
        }
      ],
      "name": "adopters",
      "outputs": [
        {
          "internalType": "address",
          "name": "",
          "type": "address"
        }
      ],
      "payable": false,
      "stateMutability": "view",
      "type": "function"
    },
    {
      "constant": true,
      "inputs": [
        {
          "internalType": "address",
          "name": "",
          "type": "address"
        }
      ],
      "name": "balances",
      "outputs": [
        {
          "internalType": "uint256",
          "name": "",
          "type": "uint256"
        }
      ],
      "payable": false,
      "stateMutability": "view",
      "type": "function"
    },
    {
      "constant": true,
      "inputs": [],
      "name": "petCount",
      "outputs": [
        {
          "internalType": "uint256",
          "name": "",
          "type": "uint256"
        }
      ],
      "payable": false,
      "stateMutability": "view",
      "type": "function"
    },
    {
      "constant": true,
      "inputs": [
        {
          "internalType": "uint256",
          "name": "",
          "type": "uint256"
        }
      ],
      "name": "petPrices",
      "outputs": [
        {
          "internalType": "uint256",
          "name": "",
          "type": "uint256"
        }
      ],
      "payable": false,
      "stateMutability": "view",
      "type": "function"
    },
    {
      "constant": true,
      "inputs": [
        {
          "internalType": "uint256",
          "name": "",
          "type": "uint256"
        }
      ],
      "name": "pets",
      "outputs": [
        {
          "internalType": "string",
          "name": "name",
          "type": "string"
        },
        {
          "internalType": "uint256",
          "name": "age",
          "type": "uint256"
        },
        {
          "internalType": "string",
          "name": "breed",
          "type": "string"
        },
        {
          "internalType": "string",
          "name": "location",
          "type": "string"
        },
        {
          "internalType": "string",
          "name": "image",
          "type": "string"
        },
        {
          "internalType": "address",
          "name": "owner",
          "type": "address"
        },
        {
          "internalType": "uint256",
          "name": "state",
          "type": "uint256"
        }
      ],
      "payable": false,
      "stateMutability": "view",
      "type": "function"
    },
    {
      "constant": true,
      "inputs": [
        {
          "internalType": "uint256",
          "name": "",
          "type": "uint256"
        }
      ],
      "name": "petsForSale",
      "outputs": [
        {
          "internalType": "bool",
          "name": "",
          "type": "bool"
        }
      ],
      "payable": false,
      "stateMutability": "view",
      "type": "function"
    },
    {
      "constant": false,
      "inputs": [
        {
          "internalType": "uint256",
          "name": "petId",
          "type": "uint256"
        }
      ],
      "name": "adopt",
      "outputs": [
        {
          "internalType": "uint256",
          "name": "",
          "type": "uint256"
        }
      ],
      "payable": false,
      "stateMutability": "nonpayable",
      "type": "function"
    },
    {
      "constant": false,
      "inputs": [
        {
          "internalType": "uint256",
          "name": "petId",
          "type": "uint256"
        }
      ],
      "name": "adoptforpets",
      "outputs": [
        {
          "internalType": "uint256",
          "name": "",
          "type": "uint256"
        }
      ],
      "payable": false,
      "stateMutability": "nonpayable",
      "type": "function"
    },
    {
      "constant": true,
      "inputs": [],
      "name": "getAdopters",
      "outputs": [
        {
          "internalType": "address[16]",
          "name": "",
          "type": "address[16]"
        }
      ],
      "payable": false,
      "stateMutability": "view",
      "type": "function"
    },
    {
      "constant": true,
      "inputs": [],
      "name": "getAdopters_address",
      "outputs": [
        {
          "internalType": "address[]",
          "name": "",
          "type": "address[]"
        }
      ],
      "payable": false,
      "stateMutability": "view",
      "type": "function"
    },
    {
      "constant": false,
      "inputs": [
        {
          "internalType": "uint256",
          "name": "petId",
          "type": "uint256"
        }
      ],
      "name": "adopt_free",
      "outputs": [
        {
          "internalType": "uint256",
          "name": "",
          "type": "uint256"
        }
      ],
      "payable": false,
      "stateMutability": "nonpayable",
      "type": "function"
    },
    {
      "constant": false,
      "inputs": [
        {
          "internalType": "uint256",
          "name": "petId",
          "type": "uint256"
        }
      ],
      "name": "adopt_freeforpets",
      "outputs": [
        {
          "internalType": "uint256",
          "name": "",
          "type": "uint256"
        }
      ],
      "payable": false,
      "stateMutability": "nonpayable",
      "type": "function"
    },
    {
      "constant": true,
      "inputs": [
        {
          "internalType": "uint256",
          "name": "petId",
          "type": "uint256"
        }
      ],
      "name": "getptes_name",
      "outputs": [
        {
          "internalType": "string",
          "name": "",
          "type": "string"
        }
      ],
      "payable": false,
      "stateMutability": "view",
      "type": "function"
    },
    {
      "constant": true,
      "inputs": [
        {
          "internalType": "uint256",
          "name": "petId",
          "type": "uint256"
        }
      ],
      "name": "getptes_age",
      "outputs": [
        {
          "internalType": "uint256",
          "name": "",
          "type": "uint256"
        }
      ],
      "payable": false,
      "stateMutability": "view",
      "type": "function"
    },
    {
      "constant": true,
      "inputs": [
        {
          "internalType": "uint256",
          "name": "petId",
          "type": "uint256"
        }
      ],
      "name": "getptes_breed",
      "outputs": [
        {
          "internalType": "string",
          "name": "",
          "type": "string"
        }
      ],
      "payable": false,
      "stateMutability": "view",
      "type": "function"
    },
    {
      "constant": true,
      "inputs": [
        {
          "internalType": "uint256",
          "name": "petId",
          "type": "uint256"
        }
      ],
      "name": "getptes_location",
      "outputs": [
        {
          "internalType": "string",
          "name": "",
          "type": "string"
        }
      ],
      "payable": false,
      "stateMutability": "view",
      "type": "function"
    },
    {
      "constant": true,
      "inputs": [
        {
          "internalType": "uint256",
          "name": "petId",
          "type": "uint256"
        }
      ],
      "name": "getptes_image",
      "outputs": [
        {
          "internalType": "string",
          "name": "",
          "type": "string"
        }
      ],
      "payable": false,
      "stateMutability": "view",
      "type": "function"
    },
    {
      "constant": true,
      "inputs": [
        {
          "internalType": "uint256",
          "name": "petId",
          "type": "uint256"
        }
      ],
      "name": "getptes_owner",
      "outputs": [
        {
          "internalType": "address",
          "name": "",
          "type": "address"
        }
      ],
      "payable": false,
      "stateMutability": "view",
      "type": "function"
    },
    {
      "constant": true,
      "inputs": [
        {
          "internalType": "uint256",
          "name": "petId",
          "type": "uint256"
        }
      ],
      "name": "getptes_state",
      "outputs": [
        {
          "internalType": "uint256",
          "name": "",
          "type": "uint256"
        }
      ],
      "payable": false,
      "stateMutability": "view",
      "type": "function"
    },
    {
      "constant": true,
      "inputs": [],
      "name": "getptes_count",
      "outputs": [
        {
          "internalType": "uint256",
          "name": "",
          "type": "uint256"
        }
      ],
      "payable": false,
      "stateMutability": "view",
      "type": "function"
    },
    {
      "constant": true,
      "inputs": [],
      "name": "isadmin",
      "outputs": [
        {
          "internalType": "bool",
          "name": "",
          "type": "bool"
        }
      ],
      "payable": false,
      "stateMutability": "view",
      "type": "function"
    },
    {
      "constant": true,
      "inputs": [
        {
          "internalType": "uint256",
          "name": "petId",
          "type": "uint256"
        }
      ],
      "name": "getprice",
      "outputs": [
        {
          "internalType": "uint256",
          "name": "",
          "type": "uint256"
        }
      ],
      "payable": false,
      "stateMutability": "view",
      "type": "function"
    },
    {
      "constant": false,
      "inputs": [
        {
          "internalType": "string",
          "name": "name",
          "type": "string"
        },
        {
          "internalType": "uint256",
          "name": "age",
          "type": "uint256"
        },
        {
          "internalType": "string",
          "name": "breed",
          "type": "string"
        },
        {
          "internalType": "string",
          "name": "location",
          "type": "string"
        },
        {
          "internalType": "string",
          "name": "image",
          "type": "string"
        }
      ],
      "name": "addpet",
      "outputs": [
        {
          "internalType": "uint256",
          "name": "",
          "type": "uint256"
        }
      ],
      "payable": false,
      "stateMutability": "nonpayable",
      "type": "function"
    },
    {
      "constant": false,
      "inputs": [
        {
          "internalType": "uint256",
          "name": "petId",
          "type": "uint256"
        },
        {
          "internalType": "uint256",
          "name": "price",
          "type": "uint256"
        }
      ],
      "name": "sellPet",
      "outputs": [],
      "payable": false,
      "stateMutability": "nonpayable",
      "type": "function"
    },
    {
      "constant": false,
      "inputs": [
        {
          "internalType": "uint256",
          "name": "petId",
          "type": "uint256"
        }
      ],
      "name": "buyPet",
      "outputs": [],
      "payable": true,
      "stateMutability": "payable",
      "type": "function"
    }
  ],
  "bytecode": "0x60806040523480156200001157600080fd5b5033601560006101000a81548173ffffffffffffffffffffffffffffffffffffffff021916908373ffffffffffffffffffffffffffffffffffffffff160217905550620000636200006960201b60201c565b62000d02565b620001536040518060400160405280600681526020017f467269656461000000000000000000000000000000000000000000000000000081525060036040518060400160405280601081526020017f53636f74746973682054657272696572000000000000000000000000000000008152506040518060400160405280600e81526020017f4c6973636f2c20416c6162616d610000000000000000000000000000000000008152506040518060400160405280601c81526020017f696d616765732f73636f74746973682d746572726965722e6a70656700000000815250620007c360201b60201c565b506200023e6040518060400160405280600481526020017f47696e610000000000000000000000000000000000000000000000000000000081525060036040518060400160405280601081526020017f53636f74746973682054657272696572000000000000000000000000000000008152506040518060400160405280601981526020017f546f6f6c6576696c6c652c20576573742056697267696e6961000000000000008152506040518060400160405280601c81526020017f696d616765732f73636f74746973682d746572726965722e6a70656700000000815250620007c360201b60201c565b50620003296040518060400160405280600781526020017f436f6c6c696e730000000000000000000000000000000000000000000000000081525060026040518060400160405280600e81526020017f4672656e63682042756c6c646f670000000000000000000000000000000000008152506040518060400160405280600f81526020017f467265656275726e2c20496461686f00000000000000000000000000000000008152506040518060400160405280601a81526020017f696d616765732f6672656e63682d62756c6c646f672e6a706567000000000000815250620007c360201b60201c565b50620004146040518060400160405280600781526020017f4d656c697373610000000000000000000000000000000000000000000000000081525060026040518060400160405280600581526020017f426f7865720000000000000000000000000000000000000000000000000000008152506040518060400160405280601381526020017f43616d61732c2050656e6e73796c76616e6961000000000000000000000000008152506040518060400160405280601181526020017f696d616765732f626f7865722e6a706567000000000000000000000000000000815250620007c360201b60201c565b50620004ff6040518060400160405280600781526020017f4a65616e696e650000000000000000000000000000000000000000000000000081525060026040518060400160405280600e81526020017f4672656e63682042756c6c646f670000000000000000000000000000000000008152506040518060400160405280601481526020017f4765726265722c20536f7574682044616b6f74610000000000000000000000008152506040518060400160405280601a81526020017f696d616765732f6672656e63682d62756c6c646f672e6a706567000000000000815250620007c360201b60201c565b50620005ea6040518060400160405280600581526020017f456c76696100000000000000000000000000000000000000000000000000000081525060036040518060400160405280600e81526020017f4672656e63682042756c6c646f670000000000000000000000000000000000008152506040518060400160405280601381526020017f496e6e7362726f6f6b2c20496c6c696e6f6973000000000000000000000000008152506040518060400160405280601a81526020017f696d616765732f6672656e63682d62756c6c646f672e6a706567000000000000815250620007c360201b60201c565b50620006d56040518060400160405280600781526020017f4c6174697368610000000000000000000000000000000000000000000000000081525060036040518060400160405280601081526020017f476f6c64656e20526574726965766572000000000000000000000000000000008152506040518060400160405280601181526020017f536f7564616e2c204c6f75697369616e610000000000000000000000000000008152506040518060400160405280601c81526020017f696d616765732f676f6c64656e2d7265747269657665722e6a70656700000000815250620007c360201b60201c565b50620007c06040518060400160405280600781526020017f436f6c656d616e0000000000000000000000000000000000000000000000000081525060036040518060400160405280601081526020017f476f6c64656e20526574726965766572000000000000000000000000000000008152506040518060400160405280601281526020017f4a61636b736f6e77616c642c2050616c617500000000000000000000000000008152506040518060400160405280601c81526020017f696d616765732f676f6c64656e2d7265747269657665722e6a70656700000000815250620007c360201b60201c565b50565b6000601560009054906101000a900473ffffffffffffffffffffffffffffffffffffffff1673ffffffffffffffffffffffffffffffffffffffff163373ffffffffffffffffffffffffffffffffffffffff161462000889576040517f08c379a00000000000000000000000000000000000000000000000000000000081526004018080602001828103825260158152602001807f596f7520617265206e6f74207468652061646d696e000000000000000000000081525060200191505060405180910390fd5b6200089362000c00565b6040518060e00160405280888152602001878152602001868152602001858152602001848152602001600073ffffffffffffffffffffffffffffffffffffffff168152602001600081525090506010819080600181540180825580915050906001820390600052602060002090600702016000909192909190915060008201518160000190805190602001906200092c92919062000c53565b506020820151816001015560408201518160020190805190602001906200095592919062000c53565b5060608201518160030190805190602001906200097492919062000c53565b5060808201518160040190805190602001906200099392919062000c53565b5060a08201518160050160006101000a81548173ffffffffffffffffffffffffffffffffffffffff021916908373ffffffffffffffffffffffffffffffffffffffff16021790555060c082015181600601555050506011600081548092919060010191905055507f60ce3f77bef0293220582bf0cd8bbd77877fd6d46d4821db34561a3e17f4ff7f8787878787604051808060200186815260200180602001806020018060200185810385528a818151815260200191508051906020019080838360005b8381101562000a7457808201518184015260208101905062000a57565b50505050905090810190601f16801562000aa25780820380516001836020036101000a031916815260200191505b50858103845288818151815260200191508051906020019080838360005b8381101562000add57808201518184015260208101905062000ac0565b50505050905090810190601f16801562000b0b5780820380516001836020036101000a031916815260200191505b50858103835287818151815260200191508051906020019080838360005b8381101562000b4657808201518184015260208101905062000b29565b50505050905090810190601f16801562000b745780820380516001836020036101000a031916815260200191505b50858103825286818151815260200191508051906020019080838360005b8381101562000baf57808201518184015260208101905062000b92565b50505050905090810190601f16801562000bdd5780820380516001836020036101000a031916815260200191505b50995050505050505050505060405180910390a160115491505095945050505050565b6040518060e001604052806060815260200160008152602001606081526020016060815260200160608152602001600073ffffffffffffffffffffffffffffffffffffffff168152602001600081525090565b828054600181600116156101000203166002900490600052602060002090601f016020900481019282601f1062000c9657805160ff191683800117855562000cc7565b8280016001018555821562000cc7579182015b8281111562000cc657825182559160200191906001019062000ca9565b5b50905062000cd6919062000cda565b5090565b62000cff91905b8082111562000cfb57600081600090555060010162000ce1565b5090565b90565b612e458062000d126000396000f3fe6080604052600436106101815760003560e01c80637a90998d116100d1578063b32fcae91161008a578063cddbbf9c11610064578063cddbbf9c14610c2d578063cf7deee514610c99578063cfb869bf14610cde578063f53d0a8e14610f1757610181565b8063b32fcae914610aff578063bf77692814610bb3578063cd619f5814610c0257610181565b80637a90998d146109625780637b0b0019146109915780637e328cbb146109e05780638588b2c514610a335780638700562d14610a825780639edded1114610ad157610181565b806343ae80d31161013e57806352bff7dc1161011857806352bff7dc1461050057806360aa0780146105b457806362c5b39014610603578063650f24c4146106b757610181565b806343ae80d31461038257806347cc7cdc146103fd578063520591bf1461044c57610181565b80630955def31461018657806319c14682146101d55780631dab0df61461022457806327e235e31461024f5780632e64a379146102b45780633de4eb171461032f575b600080fd5b34801561019257600080fd5b506101bf600480360360208110156101a957600080fd5b8101908080359060200190929190505050610f6e565b6040518082815260200191505060405180910390f35b3480156101e157600080fd5b5061020e600480360360208110156101f857600080fd5b8101908080359060200190929190505050611117565b6040518082815260200191505060405180910390f35b34801561023057600080fd5b506102396112e2565b6040518082815260200191505060405180910390f35b34801561025b57600080fd5b5061029e6004803603602081101561027257600080fd5b81019080803573ffffffffffffffffffffffffffffffffffffffff1690602001909291905050506112ec565b6040518082815260200191505060405180910390f35b3480156102c057600080fd5b506102ed600480360360208110156102d757600080fd5b8101908080359060200190929190505050611304565b604051808273ffffffffffffffffffffffffffffffffffffffff1673ffffffffffffffffffffffffffffffffffffffff16815260200191505060405180910390f35b34801561033b57600080fd5b506103446113d0565b6040518082601060200280838360005b8381101561036f578082015181840152602081019050610354565b5050505090500191505060405180910390f35b34801561038e57600080fd5b506103bb600480360360208110156103a557600080fd5b8101908080359060200190929190505050611451565b604051808273ffffffffffffffffffffffffffffffffffffffff1673ffffffffffffffffffffffffffffffffffffffff16815260200191505060405180910390f35b34801561040957600080fd5b506104366004803603602081101561042057600080fd5b8101908080359060200190929190505050611484565b6040518082815260200191505060405180910390f35b34801561045857600080fd5b506104856004803603602081101561046f57600080fd5b8101908080359060200190929190505050611530565b6040518080602001828103825283818151815260200191508051906020019080838360005b838110156104c55780820151818401526020810190506104aa565b50505050905090810190601f1680156104f25780820380516001836020036101000a031916815260200191505b509250505060405180910390f35b34801561050c57600080fd5b506105396004803603602081101561052357600080fd5b8101908080359060200190929190505050611675565b6040518080602001828103825283818151815260200191508051906020019080838360005b8381101561057957808201518184015260208101905061055e565b50505050905090810190601f1680156105a65780820380516001836020036101000a031916815260200191505b509250505060405180910390f35b3480156105c057600080fd5b506105ed600480360360208110156105d757600080fd5b81019080803590602001909291905050506117ba565b6040518082815260200191505060405180910390f35b34801561060f57600080fd5b5061063c6004803603602081101561062657600080fd5b81019080803590602001909291905050506117d2565b6040518080602001828103825283818151815260200191508051906020019080838360005b8381101561067c578082015181840152602081019050610661565b50505050905090810190601f1680156106a95780820380516001836020036101000a031916815260200191505b509250505060405180910390f35b3480156106c357600080fd5b5061094c600480360360a08110156106da57600080fd5b81019080803590602001906401000000008111156106f757600080fd5b82018360208201111561070957600080fd5b8035906020019184600183028401116401000000008311171561072b57600080fd5b91908080601f016020809104026020016040519081016040528093929190818152602001838380828437600081840152601f19601f820116905080830192505050505050509192919290803590602001909291908035906020019064010000000081111561079857600080fd5b8201836020820111156107aa57600080fd5b803590602001918460018302840111640100000000831117156107cc57600080fd5b91908080601f016020809104026020016040519081016040528093929190818152602001838380828437600081840152601f19601f8201169050808301925050505050505091929192908035906020019064010000000081111561082f57600080fd5b82018360208201111561084157600080fd5b8035906020019184600183028401116401000000008311171561086357600080fd5b91908080601f016020809104026020016040519081016040528093929190818152602001838380828437600081840152601f19601f820116905080830192505050505050509192919290803590602001906401000000008111156108c657600080fd5b8201836020820111156108d857600080fd5b803590602001918460018302840111640100000000831117156108fa57600080fd5b91908080601f016020809104026020016040519081016040528093929190818152602001838380828437600081840152601f19601f820116905080830192505050505050509192919290505050611917565b6040518082815260200191505060405180910390f35b34801561096e57600080fd5b50610977611d3d565b604051808215151515815260200191505060405180910390f35b34801561099d57600080fd5b506109ca600480360360208110156109b457600080fd5b8101908080359060200190929190505050611da6565b6040518082815260200191505060405180910390f35b3480156109ec57600080fd5b50610a1960048036036020811015610a0357600080fd5b8101908080359060200190929190505050611e51565b604051808215151515815260200191505060405180910390f35b348015610a3f57600080fd5b50610a6c60048036036020811015610a5657600080fd5b8101908080359060200190929190505050611e71565b6040518082815260200191505060405180910390f35b348015610a8e57600080fd5b50610abb60048036036020811015610aa557600080fd5b810190808035906020019092919050505061201c565b6040518082815260200191505060405180910390f35b610afd60048036036020811015610ae757600080fd5b810190808035906020019092919050505061220b565b005b348015610b0b57600080fd5b50610b3860048036036020811015610b2257600080fd5b8101908080359060200190929190505050612573565b6040518080602001828103825283818151815260200191508051906020019080838360005b83811015610b78578082015181840152602081019050610b5d565b50505050905090810190601f168015610ba55780820380516001836020036101000a031916815260200191505b509250505060405180910390f35b348015610bbf57600080fd5b50610bec60048036036020811015610bd657600080fd5b81019080803590602001909291905050506126b7565b6040518082815260200191505060405180910390f35b348015610c0e57600080fd5b50610c176126d4565b6040518082815260200191505060405180910390f35b348015610c3957600080fd5b50610c426126da565b6040518080602001828103825283818151815260200191508051906020019060200280838360005b83811015610c85578082015181840152602081019050610c6a565b505050509050019250505060405180910390f35b348015610ca557600080fd5b50610cdc60048036036040811015610cbc57600080fd5b8101908080359060200190929190803590602001909291905050506127bb565b005b348015610cea57600080fd5b50610d1760048036036020811015610d0157600080fd5b8101908080359060200190929190505050612a00565b60405180806020018881526020018060200180602001806020018773ffffffffffffffffffffffffffffffffffffffff1673ffffffffffffffffffffffffffffffffffffffff16815260200186815260200185810385528c818151815260200191508051906020019080838360005b83811015610da1578082015181840152602081019050610d86565b50505050905090810190601f168015610dce5780820380516001836020036101000a031916815260200191505b5085810384528a818151815260200191508051906020019080838360005b83811015610e07578082015181840152602081019050610dec565b50505050905090810190601f168015610e345780820380516001836020036101000a031916815260200191505b50858103835289818151815260200191508051906020019080838360005b83811015610e6d578082015181840152602081019050610e52565b50505050905090810190601f168015610e9a5780820380516001836020036101000a031916815260200191505b50858103825288818151815260200191508051906020019080838360005b83811015610ed3578082015181840152602081019050610eb8565b50505050905090810190601f168015610f005780820380516001836020036101000a031916815260200191505b509b50505050505050505050505060405180910390f35b348015610f2357600080fd5b50610f2c612ccf565b604051808273ffffffffffffffffffffffffffffffffffffffff1673ffffffffffffffffffffffffffffffffffffffff16815260200191505060405180910390f35b6000808210158015610f815750600f8211155b610ff3576040517f08c379a000000000000000000000000000000000000000000000000000000000815260040180806020018281038252601d8152602001807f4552524f523a207065744964206d75737420626520696e2072616e676500000081525060200191505060405180910390fd5b3373ffffffffffffffffffffffffffffffffffffffff166000836010811061101757fe5b0160009054906101000a900473ffffffffffffffffffffffffffffffffffffffff1673ffffffffffffffffffffffffffffffffffffffff16146110c2576040517f08c379a00000000000000000000000000000000000000000000000000000000081526004018080602001828103825260108152602001807f50657420616c726561647920667265650000000000000000000000000000000081525060200191505060405180910390fd5b60008083601081106110d057fe5b0160006101000a81548173ffffffffffffffffffffffffffffffffffffffff021916908373ffffffffffffffffffffffffffffffffffffffff160217905550819050919050565b600080821015801561112b57506011548211155b61119d576040517f08c379a000000000000000000000000000000000000000000000000000000000815260040180806020018281038252601d8152602001807f4552524f523a207065744964206d75737420626520696e2072616e676500000081525060200191505060405180910390fd5b3373ffffffffffffffffffffffffffffffffffffffff16601083815481106111c157fe5b906000526020600020906007020160050160009054906101000a900473ffffffffffffffffffffffffffffffffffffffff1673ffffffffffffffffffffffffffffffffffffffff161461127c576040517f08c379a00000000000000000000000000000000000000000000000000000000081526004018080602001828103825260108152602001807f50657420616c726561647920667265650000000000000000000000000000000081525060200191505060405180910390fd5b60006010838154811061128b57fe5b906000526020600020906007020160050160006101000a81548173ffffffffffffffffffffffffffffffffffffffff021916908373ffffffffffffffffffffffffffffffffffffffff160217905550819050919050565b6000601154905090565b60146020528060005260406000206000915090505481565b600080821015801561131857506011548211155b61138a576040517f08c379a000000000000000000000000000000000000000000000000000000000815260040180806020018281038252601d8152602001807f4552524f523a207065744964206d75737420626520696e2072616e676500000081525060200191505060405180910390fd5b6010828154811061139757fe5b906000526020600020906007020160050160009054906101000a900473ffffffffffffffffffffffffffffffffffffffff169050919050565b6113d8612cf5565b6000601080602002604051908101604052809291908260108015611447576020028201915b8160009054906101000a900473ffffffffffffffffffffffffffffffffffffffff1673ffffffffffffffffffffffffffffffffffffffff16815260200190600101908083116113fd575b5050505050905090565b6000816010811061145e57fe5b016000915054906101000a900473ffffffffffffffffffffffffffffffffffffffff1681565b600080821015801561149857506011548211155b61150a576040517f08c379a000000000000000000000000000000000000000000000000000000000815260040180806020018281038252601d8152602001807f4552524f523a207065744964206d75737420626520696e2072616e676500000081525060200191505060405180910390fd5b6010828154811061151757fe5b9060005260206000209060070201600601549050919050565b60606000821015801561154557506011548211155b6115b7576040517f08c379a000000000000000000000000000000000000000000000000000000000815260040180806020018281038252601d8152602001807f4552524f523a207065744964206d75737420626520696e2072616e676500000081525060200191505060405180910390fd5b601082815481106115c457fe5b90600052602060002090600702016003018054600181600116156101000203166002900480601f0160208091040260200160405190810160405280929190818152602001828054600181600116156101000203166002900480156116695780601f1061163e57610100808354040283529160200191611669565b820191906000526020600020905b81548152906001019060200180831161164c57829003601f168201915b50505050509050919050565b60606000821015801561168a57506011548211155b6116fc576040517f08c379a000000000000000000000000000000000000000000000000000000000815260040180806020018281038252601d8152602001807f4552524f523a207065744964206d75737420626520696e2072616e676500000081525060200191505060405180910390fd5b6010828154811061170957fe5b90600052602060002090600702016002018054600181600116156101000203166002900480601f0160208091040260200160405190810160405280929190818152602001828054600181600116156101000203166002900480156117ae5780601f10611783576101008083540402835291602001916117ae565b820191906000526020600020905b81548152906001019060200180831161179157829003601f168201915b50505050509050919050565b60136020528060005260406000206000915090505481565b6060600082101580156117e757506011548211155b611859576040517f08c379a000000000000000000000000000000000000000000000000000000000815260040180806020018281038252601d8152602001807f4552524f523a207065744964206d75737420626520696e2072616e676500000081525060200191505060405180910390fd5b6010828154811061186657fe5b90600052602060002090600702016004018054600181600116156101000203166002900480601f01602080910402602001604051908101604052809291908181526020018280546001816001161561010002031660029004801561190b5780601f106118e05761010080835404028352916020019161190b565b820191906000526020600020905b8154815290600101906020018083116118ee57829003601f168201915b50505050509050919050565b6000601560009054906101000a900473ffffffffffffffffffffffffffffffffffffffff1673ffffffffffffffffffffffffffffffffffffffff163373ffffffffffffffffffffffffffffffffffffffff16146119dc576040517f08c379a00000000000000000000000000000000000000000000000000000000081526004018080602001828103825260158152602001807f596f7520617265206e6f74207468652061646d696e000000000000000000000081525060200191505060405180910390fd5b6119e4612d18565b6040518060e00160405280888152602001878152602001868152602001858152602001848152602001600073ffffffffffffffffffffffffffffffffffffffff16815260200160008152509050601081908060018154018082558091505090600182039060005260206000209060070201600090919290919091506000820151816000019080519060200190611a7b929190612d6b565b50602082015181600101556040820151816002019080519060200190611aa2929190612d6b565b506060820151816003019080519060200190611abf929190612d6b565b506080820151816004019080519060200190611adc929190612d6b565b5060a08201518160050160006101000a81548173ffffffffffffffffffffffffffffffffffffffff021916908373ffffffffffffffffffffffffffffffffffffffff16021790555060c082015181600601555050506011600081548092919060010191905055507f60ce3f77bef0293220582bf0cd8bbd77877fd6d46d4821db34561a3e17f4ff7f8787878787604051808060200186815260200180602001806020018060200185810385528a818151815260200191508051906020019080838360005b83811015611bbb578082015181840152602081019050611ba0565b50505050905090810190601f168015611be85780820380516001836020036101000a031916815260200191505b50858103845288818151815260200191508051906020019080838360005b83811015611c21578082015181840152602081019050611c06565b50505050905090810190601f168015611c4e5780820380516001836020036101000a031916815260200191505b50858103835287818151815260200191508051906020019080838360005b83811015611c87578082015181840152602081019050611c6c565b50505050905090810190601f168015611cb45780820380516001836020036101000a031916815260200191505b50858103825286818151815260200191508051906020019080838360005b83811015611ced578082015181840152602081019050611cd2565b50505050905090810190601f168015611d1a5780820380516001836020036101000a031916815260200191505b50995050505050505050505060405180910390a160115491505095945050505050565b6000601560009054906101000a900473ffffffffffffffffffffffffffffffffffffffff1673ffffffffffffffffffffffffffffffffffffffff163373ffffffffffffffffffffffffffffffffffffffff161415611d9e5760019050611da3565b600090505b90565b6000808210158015611db9575060115482105b611e2b576040517f08c379a000000000000000000000000000000000000000000000000000000000815260040180806020018281038252601d8152602001807f4552524f523a207065744964206d75737420626520696e2072616e676500000081525060200191505060405180910390fd5b60108281548110611e3857fe5b9060005260206000209060070201600101549050919050565b60126020528060005260406000206000915054906101000a900460ff1681565b6000808210158015611e8557506011548211155b611ef7576040517f08c379a000000000000000000000000000000000000000000000000000000000815260040180806020018281038252601d8152602001807f4552524f523a207065744964206d75737420626520696e2072616e676500000081525060200191505060405180910390fd5b600073ffffffffffffffffffffffffffffffffffffffff1660008360108110611f1c57fe5b0160009054906101000a900473ffffffffffffffffffffffffffffffffffffffff1673ffffffffffffffffffffffffffffffffffffffff1614611fc7576040517f08c379a00000000000000000000000000000000000000000000000000000000081526004018080602001828103825260138152602001807f50657420616c72656164792061646f707465640000000000000000000000000081525060200191505060405180910390fd5b3360008360108110611fd557fe5b0160006101000a81548173ffffffffffffffffffffffffffffffffffffffff021916908373ffffffffffffffffffffffffffffffffffffffff160217905550819050919050565b600080821015801561203057506011548211155b6120a2576040517f08c379a000000000000000000000000000000000000000000000000000000000815260040180806020018281038252601d8152602001807f4552524f523a207065744964206d75737420626520696e2072616e676500000081525060200191505060405180910390fd5b600073ffffffffffffffffffffffffffffffffffffffff16601083815481106120c757fe5b906000526020600020906007020160050160009054906101000a900473ffffffffffffffffffffffffffffffffffffffff1673ffffffffffffffffffffffffffffffffffffffff1614612182576040517f08c379a00000000000000000000000000000000000000000000000000000000081526004018080602001828103825260138152602001807f50657420616c72656164792061646f707465640000000000000000000000000081525060200191505060405180910390fd5b336010838154811061219057fe5b906000526020600020906007020160050160006101000a81548173ffffffffffffffffffffffffffffffffffffffff021916908373ffffffffffffffffffffffffffffffffffffffff1602179055506001601083815481106121ee57fe5b906000526020600020906007020160060181905550819050919050565b60008110158015612220575060108054905081105b612292576040517f08c379a000000000000000000000000000000000000000000000000000000000815260040180806020018281038252600d8152602001807f496e76616c69642070657449640000000000000000000000000000000000000081525060200191505060405180910390fd5b6012600082815260200190815260200160002060009054906101000a900460ff16612325576040517f08c379a00000000000000000000000000000000000000000000000000000000081526004018080602001828103825260178152602001807f54686520706574206973206e6f7420666f722073616c6500000000000000000081525060200191505060405180910390fd5b60136000828152602001908152602001600020543410156123ae576040517f08c379a00000000000000000000000000000000000000000000000000000000081526004018080602001828103825260128152602001807f496e73756666696369656e742066756e6473000000000000000000000000000081525060200191505060405180910390fd5b6000601082815481106123bd57fe5b906000526020600020906007020160050160009054906101000a900473ffffffffffffffffffffffffffffffffffffffff16905033601083815481106123ff57fe5b906000526020600020906007020160050160006101000a81548173ffffffffffffffffffffffffffffffffffffffff021916908373ffffffffffffffffffffffffffffffffffffffff16021790555060006012600084815260200190815260200160002060006101000a81548160ff0219169083151502179055506000601360008481526020019081526020016000208190555060008190508073ffffffffffffffffffffffffffffffffffffffff166108fc349081150290604051600060405180830381858888f193505050501580156124de573d6000803e3d6000fd5b506001601084815481106124ee57fe5b9060005260206000209060070201600601819055507fc9bd68385a6c13d6521597dd13aca03c354b5ac1b5a50b66629f4df20ff768593384604051808373ffffffffffffffffffffffffffffffffffffffff1673ffffffffffffffffffffffffffffffffffffffff1681526020018281526020019250505060405180910390a1505050565b606060008210158015612587575060115482105b6125f9576040517f08c379a000000000000000000000000000000000000000000000000000000000815260040180806020018281038252601d8152602001807f4552524f523a207065744964206d75737420626520696e2072616e676500000081525060200191505060405180910390fd5b6010828154811061260657fe5b90600052602060002090600702016000018054600181600116156101000203166002900480601f0160208091040260200160405190810160405280929190818152602001828054600181600116156101000203166002900480156126ab5780601f10612680576101008083540402835291602001916126ab565b820191906000526020600020905b81548152906001019060200180831161268e57829003601f168201915b50505050509050919050565b600060136000838152602001908152602001600020549050919050565b60115481565b60608060115460405190808252806020026020018201604052801561270e5781602001602082028038833980820191505090505b50905060008090505b6011548110156127b3576010818154811061272e57fe5b906000526020600020906007020160050160009054906101000a900473ffffffffffffffffffffffffffffffffffffffff1682828151811061276c57fe5b602002602001019073ffffffffffffffffffffffffffffffffffffffff16908173ffffffffffffffffffffffffffffffffffffffff16815250508080600101915050612717565b508091505090565b600082101580156127d0575060108054905082105b612842576040517f08c379a000000000000000000000000000000000000000000000000000000000815260040180806020018281038252600d8152602001807f496e76616c69642070657449640000000000000000000000000000000000000081525060200191505060405180910390fd5b3373ffffffffffffffffffffffffffffffffffffffff166010838154811061286657fe5b906000526020600020906007020160050160009054906101000a900473ffffffffffffffffffffffffffffffffffffffff1673ffffffffffffffffffffffffffffffffffffffff1614612921576040517f08c379a00000000000000000000000000000000000000000000000000000000081526004018080602001828103825260208152602001807f596f7520617265206e6f7420746865206f776e6572206f66207468652070657481525060200191505060405180910390fd5b60016012600084815260200190815260200160002060006101000a81548160ff02191690831515021790555080601360008481526020019081526020016000208190555060026010838154811061297457fe5b9060005260206000209060070201600601819055507fda66748f16ee6eb4cd1d6ddb657d1b79e172c18dfeec2c440ecc5b5b704101ef338383604051808473ffffffffffffffffffffffffffffffffffffffff1673ffffffffffffffffffffffffffffffffffffffff168152602001838152602001828152602001935050505060405180910390a15050565b60108181548110612a0d57fe5b9060005260206000209060070201600091509050806000018054600181600116156101000203166002900480601f016020809104026020016040519081016040528092919081815260200182805460018160011615610100020316600290048015612ab95780601f10612a8e57610100808354040283529160200191612ab9565b820191906000526020600020905b815481529060010190602001808311612a9c57829003601f168201915b505050505090806001015490806002018054600181600116156101000203166002900480601f016020809104026020016040519081016040528092919081815260200182805460018160011615610100020316600290048015612b5d5780601f10612b3257610100808354040283529160200191612b5d565b820191906000526020600020905b815481529060010190602001808311612b4057829003601f168201915b505050505090806003018054600181600116156101000203166002900480601f016020809104026020016040519081016040528092919081815260200182805460018160011615610100020316600290048015612bfb5780601f10612bd057610100808354040283529160200191612bfb565b820191906000526020600020905b815481529060010190602001808311612bde57829003601f168201915b505050505090806004018054600181600116156101000203166002900480601f016020809104026020016040519081016040528092919081815260200182805460018160011615610100020316600290048015612c995780601f10612c6e57610100808354040283529160200191612c99565b820191906000526020600020905b815481529060010190602001808311612c7c57829003601f168201915b5050505050908060050160009054906101000a900473ffffffffffffffffffffffffffffffffffffffff16908060060154905087565b601560009054906101000a900473ffffffffffffffffffffffffffffffffffffffff1681565b604051806102000160405280601090602082028038833980820191505090505090565b6040518060e001604052806060815260200160008152602001606081526020016060815260200160608152602001600073ffffffffffffffffffffffffffffffffffffffff168152602001600081525090565b828054600181600116156101000203166002900490600052602060002090601f016020900481019282601f10612dac57805160ff1916838001178555612dda565b82800160010185558215612dda579182015b82811115612dd9578251825591602001919060010190612dbe565b5b509050612de79190612deb565b5090565b612e0d91905b80821115612e09576000816000905550600101612df1565b5090565b9056fea265627a7a72315820065c88f41bb8f2e95cc828f074c9c6029fa93d4eab2d8d8da704d50e8dae9e9464736f6c63430005100032",
  "source": "// SPDX-License-Identifier: MIT\npragma solidity ^0.5.16;\n\ncontract Adoption {\n    struct pet{\n        string name;\n        uint age;\n        string breed;\n        string location;\n        string image;\n        address owner;\n        uint state; //0 1 2\n    }\n    address[16] public adopters;\n    pet[] public pets;\n    uint public petCount;\n    mapping(uint256 => bool) public petsForSale;\n    mapping(uint256 => uint256) public petPrices;\n    mapping(address => uint256) public balances;\n    address public administrator;\n\n    event PetAdded(string name, uint age, string breed, string location, string image);\n    event PetAdopted(address adopter, uint petId);\n    event PetPutForSale(address owner, uint petId, uint price);\n    event PetSold(address buyer, uint petId);\n\n    constructor() public {\n        administrator = msg.sender;\n        addPetsFromJSON();\n        // for(uint i = 0; i < 16; i++) {\n        //     adopters.push(address(0));\n        // }\n    }\n\n\n    function adopt(uint petId) public returns (uint) {\n        require(petId >= 0 && petId <= petCount,\"ERROR: petId must be in range\");\n        require(adopters[petId] == address(0), \"Pet already adopted\");\n        adopters[petId] = msg.sender;\n        return petId;\n    }\n\n    function adoptforpets(uint petId) public returns (uint) {\n        require(petId >= 0 && petId <= petCount,\"ERROR: petId must be in range\");\n        require(pets[petId].owner == address(0), \"Pet already adopted\");\n        pets[petId].owner = msg.sender;\n\n        pets[petId].state = 1; //0 1 2\n        // emit PetAdopted(msg.sender, petId);\n\n        return petId;\n    }\n\n    \n\n    function getAdopters() public view returns (address[16] memory) {\n        return adopters;\n    }\n\n    function getAdopters_address() public view returns (address[] memory) {\n        address[] memory adopters_address = new address[](petCount);\n        for (uint i = 0; i < petCount; i++) {\n            adopters_address[i] = pets[i].owner;\n        }\n        return adopters_address;\n    }\n\n    function adopt_free(uint petId) public returns(uint)  {\n        require(petId >= 0 && petId <= 15,\"ERROR: petId must be in range\");\n        require(adopters[petId] == msg.sender, \"Pet already free\");\n        adopters[petId] = address(0);\n        return petId;\n    }\n\n    //\n    function adopt_freeforpets(uint petId) public returns(uint)  {\n        require(petId >= 0 && petId <= petCount,\"ERROR: petId must be in range\");\n        require(pets[petId].owner == msg.sender, \"Pet already free\");\n        pets[petId].owner = address(0);\n        return petId;\n    }\n\n    function getptes_name(uint petId) public view returns (string memory) {\n        require(petId >= 0 && petId < petCount,\"ERROR: petId must be in range\");\n        return pets[petId].name;\n    }\n\n    function getptes_age(uint petId) public view returns (uint) {\n        require(petId >= 0 && petId < petCount,\"ERROR: petId must be in range\");\n        return pets[petId].age;\n    }\n\n    function getptes_breed(uint petId) public view returns (string memory) {\n        require(petId >= 0 && petId <= petCount,\"ERROR: petId must be in range\");\n        return pets[petId].breed;\n    }\n\n    function getptes_location(uint petId) public view returns (string memory) {\n        require(petId >= 0 && petId <= petCount,\"ERROR: petId must be in range\");\n        return pets[petId].location;\n    }\n\n    function getptes_image(uint petId) public view returns (string memory) {\n        require(petId >= 0 && petId <= petCount,\"ERROR: petId must be in range\");\n        return pets[petId].image;\n    }\n\n    function getptes_owner(uint petId) public view returns (address) {\n        require(petId >= 0 && petId <= petCount,\"ERROR: petId must be in range\");\n        return pets[petId].owner;\n    }\n\n    function getptes_state(uint petId) public view returns (uint) {\n        require(petId >= 0 && petId <= petCount,\"ERROR: petId must be in range\");\n        return pets[petId].state;\n    }\n\n    function getptes_count() public view returns (uint) {\n        return petCount;\n    }\n\n    function isadmin() public view returns (bool) {\n        if(msg.sender==administrator){\n            return true;\n        }else{\n            return false;\n        }\n    //    return msg.sender==admin;\n    }\n\n    function getprice(uint256 petId) public view returns (uint256) {\n        return petPrices[petId];\n    }\n\n    function addpet(\n        string memory name, \n        uint age, \n        string memory breed, \n        string memory location, \n        string memory image\n        ) public returns (uint) {\n        require(msg.sender==administrator,\"You are not the admin\");\n        pet memory newpet = pet(name, age, breed, location, image, address(0), 0);\n        pets.push(newpet);\n        petCount++;\n\n        emit PetAdded(name, age, breed, location, image);\n\n        return petCount;\n    }\n\n    function sellPet(uint256 petId, uint256 price) public {\n        require(petId >= 0 && petId < pets.length, \"Invalid petId\");\n        require(pets[petId].owner == msg.sender, \"You are not the owner of the pet\");\n        petsForSale[petId] = true;\n        petPrices[petId] = price;\n        pets[petId].state = 2; //0 1 2\n\n        emit PetPutForSale(msg.sender, petId, price);\n    }\n\n    function buyPet(uint256 petId) public payable {\n        require(petId >= 0 && petId < pets.length, \"Invalid petId\");\n        require(petsForSale[petId], \"The pet is not for sale\");\n        require(msg.value >= petPrices[petId], \"Insufficient funds\");\n        \n        address previousOwner = pets[petId].owner;\n        pets[petId].owner = msg.sender;\n        petsForSale[petId] = false;\n        petPrices[petId] = 0;\n        \n        // Transfer the payment to the previous owner\n        address payable previousOwnerPayable = address(uint160(previousOwner));\n        previousOwnerPayable.transfer(msg.value);\n\n        pets[petId].state = 1; //0 1 2\n        emit PetSold(msg.sender, petId);\n    }\n\n    function addPetsFromJSON() private {\n        addpet(\"Frieda\", 3, \"Scottish Terrier\", \"Lisco, Alabama\", \"images/scottish-terrier.jpeg\");\n        addpet(\"Gina\", 3, \"Scottish Terrier\", \"Tooleville, West Virginia\", \"images/scottish-terrier.jpeg\");\n        addpet(\"Collins\", 2, \"French Bulldog\", \"Freeburn, Idaho\", \"images/french-bulldog.jpeg\");\n        addpet(\"Melissa\", 2, \"Boxer\", \"Camas, Pennsylvania\", \"images/boxer.jpeg\");\n        addpet(\"Jeanine\", 2, \"French Bulldog\", \"Gerber, South Dakota\", \"images/french-bulldog.jpeg\");\n        addpet(\"Elvia\", 3, \"French Bulldog\", \"Innsbrook, Illinois\", \"images/french-bulldog.jpeg\");\n        addpet(\"Latisha\", 3, \"Golden Retriever\", \"Soudan, Louisiana\", \"images/golden-retriever.jpeg\");\n        addpet(\"Coleman\", 3, \"Golden Retriever\", \"Jacksonwald, Palau\", \"images/golden-retriever.jpeg\");\n    }\n\n    // function getptes_count();\n\n}",
  "sourcePath": "/home/eakal/Word/blockchain/lab6/lab/petshop/pet-shop-box/contracts/Adoption.sol",
  "compiler": {
    "name": "solc",
    "version": "0.5.16+commit.9c3226ce.Emscripten.clang"
  },
  "schemaVersion": "3.4.14",
  "updatedAt": "2023-06-06T14:39:19.326Z",
  "devdoc": {
    "methods": {}
  },
  "userdoc": {
    "methods": {}
  }
}